:020000040800F2
:100000000806002015250008B5230008B7230008BE
:1000100000000000000000000000000000000000E0
:10002000000000000000000000000000B9230008EC
:100030000000000000000000BB230008BD230008F2
:10004000BB0E000800000000DB1300085B14000872
:10005000A31B00086F1C0008E7210008F324000818
:1000600000000000FF2400083D2500083F2500088F
:100070004125000843250008452500080000000030
:100080004725000800000000000000004925000886
:10009000000000004B2500084D2500084F250008F2
:1000A000000000005125000800000000C9230008DE
:1000B000F1B4002006000200030004000500294FEF
:1000C00001E0C91B761C89B2B942FADA89B2FA2773
:1000D000BF00B94204DBC91B521CF7E764395B1C43
:1000E00089B26429FADA89B20A2904DB0A39641C64
:1000F000F9E7491E6D1C0F003F04FAD130210E4371
:10010000009F3E700A43009E72700B43009A9370EA
:100110000C43009AD4702943009A117100994871D8
:10012000F1BC7047884201D3401A03E00023DB434F
:10013000591A081890428041C043C00F704780B5DB
:1001400000F0D0FB01BD80B500F0DCFB02BD10B5B6
:100150000C00FA239B0022000100034800F00EFC73
:10016000200010BD102700003408002080B572B6B2
:1001700000F064FE62B602BDF5B581B00E00002449
:100180002700250003E07F1C6420FFF7D8FF0198BB
:10019000FFF7ECFF300000F088FE002809D03000A7
:1001A00000F083FE3018401E00780D2801D1012098
:1001B000FEBD019800F042FE002823D1300000F07F
:1001C00074FE002809D0300000F06FFE3018401E89
:1001D00000780D2801D0052FD5DB300000F065FE3A
:1001E000002801D1052FCEDB300000F05EFE401E5E
:1001F0008041C043C00FFEBD684600783055002DD9
:1002000000D1641C6946019800F037FE0028D5D162
:100210000298801E844200D10125684600780A2891
:10022000F0D00D28E8D1300000F03FFE0028E9D0E2
:10023000684600783055012D06DB00220299300017
:1002400000F03CFE0020FEBD0120FEBDF9B581B0EE
:100250000C001600002506E00C0000252A46029935
:10026000300000F02BFE2068002807D1A16800298B
:1002700004D1E168002901D10020FEBD002805D18C
:10028000A168002902D1E1680029E5D1002D0ED135
:1002900000280CD000F009FE010089B22068FFF7A9
:1002A00056FF00283DD46420FFF749FF0125606810
:1002B000002801D0FFF743FFFFF745FF0700FFF7D6
:1002C00042FF62683900FFF72DFF002806D1029A2D
:1002D00031000198FFF750FF0128F0D1300000F005
:1002E000E4FD00281DD0A168002907D1E46800259D
:1002F0002A460299300000F0E1FDB4E7300000F03A
:100300000BFE002807D0E46800252A460299300039
:1003100000F0D4FDA7E700220299300000F0CEFDE6
:10032000A1E70120FEBD0000F8B50024264600F03C
:10033000F7FD00F0C1F900F04DFA00F027FA00F0E7
:1003400001FAB04D2046E88428852800A4302862B0
:100350008020A884686B016820220A43026022463C
:1003600001219020C00500F0B7FE1E2000F0BAFA6F
:10037000012211469020C00500F0AEFE01220821A6
:100380009020C00500F0A8FE00F00EFF234600BF3D
:100390009DA21946022000F0B1FE01239EA2032176
:1003A000204600F0ABFEFA20400000F09BFA204609
:1003B000E8842885922040002F1880233A0000BF4F
:1003C00097A128002030FFF741FF002806D0012325
:1003D00097A20421204600F091FEFEE7012300BF12
:1003E00096A20321204600F089FE02219020C0053C
:1003F00000F06BFE002807D1012300BF93A219462D
:10040000062000F07BFEC3E0012300BF91A2194645
:10041000062000F073FE234690A20321184600F048
:100420006DFE23E0280000F040FD22460100280078
:1004300000F054FD300000F038FD02000D3A3100AC
:100440000D31280000F0CAFF23462A000421184677
:1004500000F054FE012300BF83A20521204600F0D6
:100460004DFE22468021380000F038FD8022390000
:1004700028002030FFF780FE0600641C00222021A7
:10048000280000F02BFD210089B22800FFF710FEA4
:10049000002002E020212954401C295C3029F9D099
:1004A000002300BF74A20221184600F027FE01239A
:1004B0002A000221052000F021FE022E05D1012391
:1004C0006FA20521002000F019FE012ECED10023DD
:1004D00070A20521184600F011FE002470A138001A
:1004E00000F01AFD06009DD16FA1380000F014FD48
:1004F000002813D001233A000521204600F0FEFD1C
:1005000022468021380000F0E9FC280000F0CDFCF4
:1005100022460100280000F0E1FCA7E7012300BF0C
:10052000D3A20521204600F0E9FD224680213800B3
:1005300000F0D4FC280000F0B8FC2246010028009E
:1005400000F0CCFC92E7FA20400000F0CBF9641CEC
:100550008022390028002030FFF70EFE0128F2D15A
:100560000A2CF0D1012806D0012300BFC4A2022129
:10057000042000F0C3FD00BF4DA1380000F05CFF77
:10058000002805D10123ACA20321092000F0B6FD0B
:10059000FA20800000F0A6F9761C00222021280015
:1005A00000F09CFC310089B22800FFF781FD002398
:1005B000A2A20321184600F0A1FD00232A00032176
:1005C000084600F09BFD01239DA20321092000F0B5
:1005D00095FD00BFBEA4200000F067FC010089B2B9
:1005E0002000FFF7B4FD280000F05FFC010089B295
:1005F0002800FFF7ACFD022192A0FFF7A8FD002420
:10060000A6E70000000800204C4F524120545258E9
:100610002076312E30000000496E69742E2E2E0097
:10062000E8210008C8000000B0060008C422000845
:100630004552524F5220312E000000002020202031
:100640002020202020202020000000005F54585F40
:10065000000000005F52585F000000004D6573739A
:100660006167653A00000000202020202020202023
:100670002020202020202000776169743D20000088
:100680004552524F523A20737472206E6F20656E3D
:10069000642E0000202020202020202020000000A8
:1006A0002B5243563D0000002B4552523D000000A6
:1006B0002B4F4B0D0000000070B594B0012408943E
:1006C0000994022610962004119000011290002532
:1006D000139508A800F0C2FE002804D05A4900BFB4
:1006E0006AA000F0C3F807200090019602950395D8
:1006F0002146684601F088F8002804D0534900BF1D
:1007000062A000F0B3F80494069504A801F072F911
:10071000002804D04E4900BF5CA000F0A7F801F00B
:1007200034F9FA21890001F0E5F901F081FA042099
:1007300001F082FA2A4611460020C04301F070FA07
:1007400014B070BD80B5434843490160822149001F
:10075000416000218160E022D200C26001614161FC
:100760008022D20282612022C261016241628162E2
:100770000722C26201630821416301F079FA00286F
:1007800003D0364941A000F071F801BD80B534486E
:1007900034494163E121490281630021C16301645D
:1007A00041640C228264C1648022120202654165A8
:1007B00030218165D108C16649000167343000F0FD
:1007C000A7F8002805D0BE21890000BF2FA000F0A7
:1007D0004DF801BD30B587B08020C00322490A68BA
:1007E00002430A600A68104000900098802080024E
:1007F0000A6802430A600968084000900098902443
:10080000E40500220D21200000F066FC0D2001907F
:100810000120029000250395049501A9200000F015
:100820008FFB022001900295039501A9200000F0A2
:1008300087FB07B030BD000020000000503D0000E5
:100840003E0000000D0A0000A9020000B6020000F0
:10085000BD020000A409002000300140E1020000B8
:10086000000800200038014014100240FEE700009C
:10087000527820737472696E67203F3F3F0000001A
:100880004552524F522054582E000000433A5C43C8
:1008900041445F484F4D455C50524A5C6C6F7261F9
:1008A0005F6D6F645C61726D5F6961725F372E3876
:1008B000302E315C6C6F72615F6D6F645C436F7280
:1008C000655C5372635C6D61696E2E6300000000AD
:1008D00041542B53454E443D36303131312C372C69
:1008E000503D000031B500F00DF80400009D0020DF
:1008F000C043854200D06D1C00F004F8001BA842E4
:10090000FAD331BD01480068704700BF080A0020D3
:1009100038B5040015D0250068356878002804D162
:1009200000202870200001F0FDFB24206870206862
:100930000168012291430160200000F003F90128C1
:1009400001D1012032BD606A002802D0200000F0F1
:100950009CF920684168084A0A4042602068816822
:100960000822914381602068016801220A430260E5
:10097000200000F0F3F932BDFFF7FFFFFCB583B0B4
:1009800006000C0035005035687E20285AD1002C16
:100990000DD0104600280AD0B06880214901884255
:1009A00007D13069002804D12000C00701D50120FB
:1009B00049E0287E012845D0012028760027EF61F4
:1009C00021206876FFF79EFF019068468089288085
:1009D00068468089688005E02088C005C00D3168C0
:1009E0000885A41C688800281BD06888401E688081
:1009F00004980090019B3A468021300000F0B7F93E
:100A0000002801D003201EE0B068802149018842FF
:100A100002D130690028DFD0207831680885641C55
:100A2000E0E704980090019B3A464021300000F036
:100A30009EF9002801D0032005E0202068762F765B
:100A4000384600E0022005B0F0BDFCB583B00600DA
:100A50000C0035005835A87C20286DD1002C0DD015
:100A6000104600280AD0B06880214901884207D189
:100A70003069002804D12000C00701D501205CE0C6
:100A8000287C012858D00120287400276F6122207B
:100A9000A874FFF737FF029068468089288068466F
:100AA00080896880B06880214901884208D1306916
:100AB000002802D12248A8800CE0FF20A88009E08D
:100AC000002807D13069002802D1FF20A88001E06A
:100AD0007F20A880A8886946888006E03068808CDE
:100AE0006946898801402180A41C688800281ED09E
:100AF0006888401E688004980090029B3A46202136
:100B0000300000F034F9002801D0032015E0B0686F
:100B100080214901884202D130690028DED0306846
:100B2000808C6946898801402170641CDDE72020A3
:100B3000A8742F74384600E0022005B0F0BD000014
:100B4000FF010000F8B504001022002318001D006A
:100B5000266831689E4F0F40A168394327690F43CB
:100B600061693943E7690F43376021684F68994EDF
:100B70003E40E76837434F6021688F68964E3E409D
:100B8000A7693743266A3E438E60944909688907FE
:100B9000890F05D0022909D006D3032902D006E027
:100BA0001A0004E0022202E0042200E0082280236E
:100BB0001B02E169994233D1002A06D0022A0DD0E6
:100BC000042A12D0082A19D01FE000F0E3FE616861
:100BD00040004A08801800F08DFF17E0616848085F
:100BE0007F4A801800F086FF10E000F0A3FE6168E5
:100BF00040004A08801800F07DFF07E0616848085F
:100C00005A00801800F076FF00E001257549014088
:100C100080B240084007400F08432168C86032E0B6
:100C2000002A06D0022A0FD0042A17D0082A20D082
:100C300028E000F0AFFE61684A08801800F05AFF13
:100C400080B22168C8601EE061684808664A801862
:100C500000F050FF80B22168C86014E000F06AFE26
:100C600061684A08801800F045FF80B22168C860BA
:100C700009E061684808C01800F03CFF80B22168B4
:100C8000C86000E001252800F2BD2421415CC907AD
:100C900006D501684A68554B1340826A1A434A6078
:100CA0002421415C890706D501684A68504B1340EE
:100CB000C26A1A434A602421415C490706D501688B
:100CC0004A684C4B1340026B1A434A602421415C32
:100CD000090706D501684A68474B1340426B1A431F
:100CE0004A602421415CC90606D501688A68434BE5
:100CF0001340826B1A438A602421415C890606D521
:100D000001688A68144B1340C26B1A438A6024211D
:100D1000415C490612D501684A68394B1340026CA0
:100D20001A434A60016C80225203914206D1016845
:100D30004A68344B1340426C1A434A602421415C98
:100D4000090606D501684A682F4B1340806C18438A
:100D50004860704700000000FFDFFFFF683000219F
:100D60004160202242708270017008467047F4B5DD
:100D700004000D001F00069E2068C0692840A8429C
:100D800001D1012000E000206946097888421DD188
:100D90000020C0438642EFD0002E04D0FFF7B2FD02
:100DA000C01B8642E8D220680168184A0A400260E7
:100DB00020688168012291438160200068302021F1
:100DC00041708170002101700320F2BD0020F2BD4E
:100DD000F369FFFFFFCFFFFFFFF4FFFF301002407A
:100DE0000024F400F0FF000000127A00FFFFFDFF76
:100DF000FFFFFEFFFFFFFBFFFF7FFFFFFFEFFFFF98
:100E0000FFFFEFFFFFFF9FFFFFFFF7FF5FFEFFFF0B
:100E100010B40189C28813000C00A34201D180885C
:100E20000AE00B001400A34204D28088801A401804
:100E300080B201E0881A80B210BC704710B504007F
:100E4000FFF7E6FFA188081A80B210BD38B505008B
:100E50000C00FFF7DDFF022801DA012032BD28680F
:100E6000E9884454E888401CE880A98880B2884218
:100E700001D30020E880002032BD38B505000C0009
:100E8000FFF7DCFF002801D1012032BD2868298945
:100E9000405C20702889401C2881A98880B2884243
:100EA00001D100202881002032BD010000E0491C52
:100EB0000A78002AFBD1081A7047FEE71206130AC7
:100EC0001A43130C1A4300BF094205D083070BD005
:100ED0000270401C491EF9D1704700001206130A27
:100EE0001A43130C1A4300BF130030B4140015004A
:100EF000103902D310393CC0FCD2490700D30CC0D2
:100F000000D504C0890002D30280801C002900D5CE
:100F1000027030BC7047000080B501F035F902BDA9
:100F200080B50648016810220A430260002001F0E3
:100F300047F901F0B1F8002002BD00000020024096
:100F4000F1B483B0002026E005226C466478A2400C
:100F50003243029C2260634A1468DE4334404D6889
:100F6000ED0300D51C431460546834404D68AD0354
:100F700000D51C435460946834404D68ED0200D5A0
:100F80001C439460D46826404C68A40201D53343C6
:100F90001E00D660401C0C682200C24000D192E0C6
:100FA00001221300834001932340F3D04C68022CAC
:100FB00001D0122C13D1039CC508AD006419266A18
:100FC0000500AD002F001C253D400F27AF40BE435C
:100FD0000F69BC462F006546BD4035432562039C22
:100FE0002668040064006D462C7003242F782500C9
:100FF000BD40EF433D002E40B4464F6827406E464B
:101000003678B74066463743039E37604E68012EF8
:1010100005D0022E03D0112E01D0122E16D1039E20
:10102000B6682E40B446CF686E463678B7406646FE
:101030003743039EB760039E7668019FBE434F68A7
:101040003F09174087403743039E7760039EF66849
:1010500035408E686F463F78BE402E43039DEE605C
:101060004D68ED0096D5204D2E6816432E602D68F4
:1010700015400195019D1D4D8608B600AD190295DC
:101080002E680500AD000C272F406D466F700F25B0
:101090006F467F78BD40AE43039D9027FF05BD425C
:1010A00001D1002251E7124FBD4200D14DE72A463F
:1010B000104DAA4201D1022247E70F4DAA4200D0AB
:1010C00042E7220041E7FFBC704700690840401E2C
:1010D0008041C043C00F7047002A01D08161704732
:1010E000816270470004014018100240080001406E
:1010F0000004004800080048000C0048F8B510281B
:1011000000DB002084002418062900DB002134487D
:10111000E4B2542569436118441800E0521C117868
:1011200000291CD000210D0003E00E002670641C75
:101130006D1C052DF2DAFC2676008619B442F7D034
:101140001678202EF1DB00BF27A7BC46B700BE19DA
:1011500076196746BE19A03E36782670E7E7002B61
:1011600001D000F001F8F1BD70B59026F60500221F
:1011700004213000FFF7B0FF1A4DFA24A400230029
:10118000022200BF94A1280000F0CFFD012204211B
:101190003000FFF7A1FF2300FC2252001049280075
:1011A00000F0C3FD70BD000080B500220421902036
:1011B000C005FFF791FFFA239B00062284A109488E
:1011C00000F0B3FD002801D0012002BD0022FC2167
:1011D00049000348FFF782FEFFF7C6FF002002BD6B
:1011E00008060020A4090020000000000000005FA5
:1011F00000000007000700147F147F14242A7F2AB0
:10120000122313086462364955225000050300007A
:10121000001C2241000041221C00082A1C2A080848
:10122000083E080800503000000808080808006060
:1012300060000020100804023E5149453E00427FF4
:10124000400042615149462141454B311814127FFB
:101250001027454545393C4A494930017109050384
:101260003649494936064949291E003636000000EC
:10127000563600000008142241141414141441229C
:101280001408000201510906324979413E7E1111CC
:10129000117E7F494949363E414141227F414122E9
:1012A0001C7F494949417F090901013E41415132B1
:1012B0007F0808087F00417F41002040413F017FB7
:1012C000081422417F404040407F0204027F7F0497
:1012D00008107F3E4141413E7F090909063E4151C8
:1012E000215E7F09192946464949493101017F019B
:1012F000013F4040403F1F2040201F7F2018207F9B
:1013000063140814630304780403615149454300DE
:10131000007F4141020408102041417F0000040287
:1013200001020440404040400001020400205454A7
:1013300054787F484444383844444420384444482E
:101340007F3854545418087E090102081454543C40
:101350007F0804047800447D40002040443D0000A4
:101360007F10284400417F40007C041804787C08EA
:1013700004047838444444387C14141408081414C1
:10138000187C7C080404084854545420043F44400A
:10139000203C4040207C1C2040201C3C4030403CF5
:1013A00044281028440C5050503C4464544C440091
:1013B0000836410000007F000000413608000808A0
:1013C0002A1C08081C2A08083E3E3E3E3E0000003B
:1013D000211304B8200C00008040FEE7124207D021
:1013E0008B0706D00B78491C0370401C521EF7D89F
:1013F0007047830706D00B78491C0370401C521EAF
:10140000F9D1704770B4103A03D378C9103A78C054
:10141000FBD2530701D318C918C001D508C908C0A9
:10142000D20704D30B880380891C801C002A01D5B5
:101430000B78037070BC704701E0401C491C0A78AF
:101440000378934203D1002BF7D10020704702D2DA
:101450000020C043704701207047FEE7F0B583B01D
:101460000400AB4D2078C00758D50C2069680140B6
:10147000042906D06968084008280AD16868C003B2
:1014800007D52868800349D56068002846D1012027
:10149000FEBD6068012805D128688021490201430A
:1014A00029601EE0002808D128689A490140296077
:1014B000286899490140296013E00528286809D166
:1014C0008021C90201432960286880214902014323
:1014D000296006E08F490140296028688E49014053
:1014E00029608027BF02606800280BD0FFF70AFA46
:1014F00006002868384011D1FFF704FA801B6528E0
:10150000F7D37BE1FFF7FEF906002868384005D0E5
:10151000FFF7F8F9801B6528F7D36FE102272068F1
:10152000384017D00C206968014006D0696808402F
:10153000082825D16868C00322D42868384002D022
:10154000E0680128A3D12868F82188432169C900EF
:1015500001432960207800074BD5E0690028686ABC
:1015600038D0012101436962FFF7CCF90600686AAF
:1015700038403ED1FFF7C6F9801B0328F7D33DE181
:10158000E0680028286816D0012101432960FFF790
:10159000B9F906002868384005D1FFF7B3F9801B78
:1015A0000328F7D32AE12868F82188432169C90074
:1015B00001432960CEE7012188432860FFF7A2F9A3
:1015C000060028683840C5D0FFF79CF9801B032827
:1015D000F7D313E1012188436862FFF793F906000E
:1015E000686A384005D0FFF78DF9801B0328F7D3D0
:1015F00004E12078400771D5002069460870F8069C
:10160000E969014009D1E9690143E961E9690840F3
:10161000019001980120694608707A480068C00569
:1016200012D478480068A90D014376480160FFF79D
:1016300069F9060073480068C00505D4FFF762F930
:10164000801B6528F6D3D9E0A068012804D1286A58
:101650000121014329621CE0002808D1286A0121E8
:1016600088432862286A04218843286211E00528FB
:10167000286A07D1042101432962286A0121014314
:10168000296206E0012188432862286A04218843F0
:101690002862A06800280CD0FFF734F90600286AF9
:1016A000384013D1FFF72EF9801BA0498842F6D3AA
:1016B000A4E0FFF727F90600286A384006D0FFF7B4
:1016C00021F9801B99498842F6D397E06846007853
:1016D000012803D1E86996490140E9612078C006F4
:1016E00023D5606901283CD1686B042101436963FB
:1016F000686B012101436963FFF704F90600686B19
:1017000038400BD1FFF7FEF8801B0328F7D375E0B4
:1017100000100240FFFFFEFFFFFFFBFF686BF82198
:101720008843A169C90001436963206A002867D022
:1017300069680C220A40082A00D1A8E63F069449AD
:10174000022828684DD101402960FFF7DBF8060028
:101750002868384027D0FFF7D5F8801B0328F7D337
:101760004CE00421C9438842686B09D10140696398
:10177000686BF8218843A169C90001436963D4E714
:10178000042101436963686B012188436863FFF7A3
:10179000B9F80600686B3840C7D0FFF7B3F8801B74
:1017A0000328F7D32AE0E86A0F218843E16A01435E
:1017B000E96268687D490140A06A0843616A0143A3
:1017C00069602868790801432960FFF79BF80600E3
:1017D0002868384014D1FFF795F8801B0328F7D309
:1017E0000CE001402960FFF78DF8060028683840BA
:1017F00006D0FFF787F8801B0328F7D30320FEBD30
:101800000020FEBD00700040F2B582B0040001254A
:10181000674F3868284088420AD23868294688438A
:10182000029901433960386828400299884261D1A1
:10183000604E02202168014005D07168F02291437A
:10184000A2680A4372602168294043D06168012977
:1018500003D13068800309D44CE0022903D13068F9
:10186000800103D446E03268104043D07068032200
:10187000904301437160FFF745F8009060680128CC
:101880000CD170680C210140042923D0FFF73AF8ED
:101890000099401A25498842F3D319E002280CD157
:1018A00070680C210140082914D0FFF72BF800992B
:1018B000401A1E498842F3D30AE070680C210140A7
:1018C00008D0FFF71FF80099401A18498842F4D34E
:1018D0000320FEBD02983968294088420CD238683E
:1018E00029468843029901433960386805400298C7
:1018F000854201D00120FEBD2078400705D57068E3
:101900002D490140E0680843706000F013F82B494E
:10191000726812091207120F895CC84028490860D2
:10192000002000F04DFC0020FEBD000089130000E7
:10193000FFFFFFEF10B588B004A800BF25A110225B
:10194000FFF760FD684600BF26A11022FFF75AFD91
:101950001C4908680C220240082A13D10F2204AB4C
:10196000840C14401C5D6B46896A0A40995CC00374
:1019700004D5154800F0BEF8604304E01348444322
:10198000200000E0104808B010BD0D480068704706
:10199000FFFFFFFE80B5FFF7F8FF0D49094A126807
:1019A000120A5207520F895CC84002BDFFFFC2FFF6
:1019B0000020024000100240FFF8FFFFA4230008AF
:1019C000000000200410024000127A0000093D00CF
:1019D0003025000802030405060708090A0B0C0D50
:1019E0000E0F10100102030405060708090A0B0C6C
:1019F0000D0E0F10F8B504002068C00357D500265F
:101A000080204005354D2968014007D129680143F0
:101A10002960296808400090009801263048006835
:101A2000C00512D42E480068A90D01432C4801605E
:101A3000FEF768FF07002A480068C00505D4FEF7D6
:101A400061FFC01B6528F6D323E0C02189006868C8
:101A5000084020D06268114088421CD06968214843
:101A600008406968802252020A436A6069681E4A17
:101A70000A406A606860C0070DD5FEF743FF0700A3
:101A80006868800707D4FEF73DFFC01B17498842EE
:101A9000F6D30320F2BD686812490140606808432C
:101AA0006860012E03D1286811490140296020781F
:101AB000C00706D5094D686903218843A168014321
:101AC00069612078800606D5044D68691021884335
:101AD000E168014369610020F2BD00001C10024072
:101AE00000700040FFFCFFFFFFFFFEFF89130000B6
:101AF000FFFFFFEF0022030A8B420BD203098B4248
:101B000019D243088B422ED2411A00D201465241CB
:101B100010467047FF2209023FD012068B4205D3C0
:101B2000121209028B4201D31212090203098B42DD
:101B300019D300E0090AC3098B4201D3CB01C01AB3
:101B4000524183098B4201D38B01C01A5241430990
:101B50008B4201D34B01C01A524103098B4201D37E
:101B60000B01C01A5241C3088B4201D3CB00C01AEB
:101B7000524183088B4201D38B00C01A5241430863
:101B80008B4201D34B00C01A5241884200D3401A05
:101B90005241CFD201461046704708B500F022FBF3
:101BA00008BDFEE70121C006C00E81402948016042
:101BB000704710B4C20018231340FF249C40E24336
:101BC0008901C9B2994000280BD5234B0007000FAB
:101BD000083880088000181803681A401143016013
:101BE00007E01E4B80088000181803681A40114354
:101BF000016010BC704710B5401E80214904884226
:101C000001D3012010BD164C606003210020C043A9
:101C1000FFF7CFFF0020A06007202060002010BD4C
:101C200080B5FFF7C6FF01BD80B5FFF7BBFF01BD63
:101C300080B5FFF7E0FF02BD09490428086803D119
:101C4000042202430A6070470422904308607047F0
:101C50000000000000E100E01CED00E000E400E016
:101C600010E000E080B500F001F801BD7047FEE72C
:101C7000F8B5040001D10120F2BD0025A5622600BF
:101C80005C367078002804D128003070200000F005
:101C900029FA02200100717021680A6840239A43E2
:101CA0000A60E36890498B4201D32A0000E0C20237
:101CB000F0273F01BB4203D04F1EBB4200D0A562BC
:101CC000236B002B06D1E3688B4201D3206301E034
:101CD000012020636068A1680143206908436169AD
:101CE0000143A06980239B0018400843E169014338
:101CF000206A0843A16A014320680160A069000CC2
:101D000004210840616A0143606B0843E1680143B4
:101D10000A43206842602068C169744A0A40C2616F
:101D20007560012070702846F2BDFEB504000E00FB
:101D300000273D004430007E012801D10220FEBD75
:101D40000120210044310876FEF7DCFD00902000E0
:101D50004430407E012801D00225BCE0002E03D093
:101D600068468088002801D10125B4E003202100C5
:101D70004431487620004430C761A66368468088B5
:101D8000A08768468088E087276438004421605235
:101D900021004431488020004430C7602000443096
:101DA0008760A06880210902884205D12068016807
:101DB0008022D2010A4302602068402102680A4062
:101DC00002D10268114301606068E168464A9142AD
:101DD00028D3002802D0E08F01280DD13088216857
:101DE000C860B61CE08F401EE08705E03188C16006
:101DF000B61CE08F401EE087E08F002850D020689E
:101E000081688907F2D40298002847D00021C9438D
:101E10008842F1D0FEF776FD0099401A0299884277
:101E2000EAD33BE0002802D0E08F012817D12068D8
:101E3000E18F022906D33188C160B61CE08F801E75
:101E4000E0870CE031780173761CE08F401EE0875C
:101E500005E03188C160B61CE08F801EE087E08F0E
:101E600000281DD020688168890709D5E18F0229E3
:101E7000EFD231780173761CE08F401EE087EEE7E9
:101E8000029800280AD00021C9438842E7D0FEF713
:101E900039FD0099401A02998842E0D303251AE0DF
:101EA000009A0299200000F0BFF8002803D02020FB
:101EB00021004431C861A068002806D1009720683D
:101EC000C168009180680090009820004430C0698B
:101ED000002800D00125012021004431487620004F
:101EE000443007762800FEBD01070000FFF7FFFF22
:101EF000F4B504000F001D00069E2068806838407D
:101F0000B84201D1012000E000200099884237D07A
:101F10000020C0438542F0D0002D04D0FEF7F2FC33
:101F2000801BA842E9D320684168E02291434160C8
:101F300060688221490088420CD1A0688021090292
:101F4000884202D04909884204D1206801684022B1
:101F50009143016080208001A16A814208D12168FB
:101F60000A684C4B13400B6021680A6810430860F4
:101F700020005C3001214170002101700320F2BD7E
:101F80000020F2BDF2B582B0040017001D00089ECB
:101F900020688168029A0A40BA4243D00299C0225E
:101FA000D200914206D1002F04D1007B694608700F
:101FB000684600780020C0438542E9D0002D04D057
:101FC000FEF7A0FC801BA842E2D320684168E02213
:101FD0009143416060688221490088420CD1A06829
:101FE00080210902884202D04909884204D1206830
:101FF000016840229143016080208001A16A8142F2
:1020000008D121680A68234B13400B6021680A68D5
:102010001043086020005C300121417000210170F4
:102020000320FEBD0020FEBD70B582B004000D008F
:10203000160000962B000022C0214901FFF7A2FFE5
:10204000002805D0206E202101432166032076BDA3
:1020500000962B00002280212000FFF749FF002876
:1020600005D0206E202101432166032076BD009615
:102070002B000022C021C9002000FFF783FF0028A9
:1020800005D0206E202101432166032076BD00206B
:1020900076BD0000FFDFFFFF80B5012037490A68E9
:1020A00002430A600A6810400090009880204005B2
:1020B0004A6802434A60496808400090009800223C
:1020C00011460420C043FFF7ABFD0022114601205A
:1020D000C043FFF7A5FD002211460020C043FFF7D3
:1020E0009FFD01BD00682649884200D0704700B5B9
:1020F00087B0880C21490A6802430A6009680840D1
:1021000000900098B02001900220029000200390DF
:1021100003210491059001A99020C005FEF710FF4E
:1021200007B000BD00681749884200D0704700B56D
:1021300087B08020C00111490A6802430A6009681B
:10214000084000900098C020C0000190022002903A
:1021500000200390032004900120059001A9902005
:10216000C005FEF7EDFE002211461B20FFF758FDCB
:102170001B20FFF759FD07B000BD000018100240FA
:10218000003001400038014070B40A78130008D1D3
:1021900014E05B1C1E78A6420AD001E0002C0CD093
:1021A000401C04789442F9D1002806D003000D00A9
:1021B0006D1C2C782600ECD100E0002070BC70472C
:1021C00010B50400FFF7E1FBFA218900FFF792FC4C
:1021D000FFF72EFD002221000020C043FFF720FD65
:1021E000002010BD7047FEE741540D0A00000000BA
:1021F00041542B4D4F44453D300D0A002B4F4B0DA4
:102200000000000041542B504152414D455445526D
:102210003D31322C372C342C350D0A002B4F4B0D11
:102220000000000041542B42414E443D39313530CD
:1022300030303030300D0A002B4F4B0D00000000C5
:1022400041542B414444524553533D363031313192
:102250000D0A00002B4F4B0D0000000041542B4E87
:102260004554574F524B49443D350D0A000000007C
:102270002B4F4B0D0000000041542B4350494E3D65
:102280004641424330413032454544434141393073
:102290004630424330303032453544434141393194
:1022A0000D0A00002B4F4B0D0000000041542B4342
:1022B00052464F503D31350D0A0000002B4F4B0D5B
:1022C00000000000F0210008C8000000FC21000808
:1022D000D422000804220008C80000001C220008C4
:1022E000E422000824220008C80000003822000868
:1022F000F422000840220008C80000005422000810
:10230000042300085C220008C800000070220008B6
:102310001423000878220008C8000000A422000846
:1023200024230008AC220008C8000000BC220008DA
:10233000342300080000000000000000000000003E
:10234000000000001148016801220A430260416850
:102350000F4A0A40426001680E4A0A400260016862
:102360000D4A0A40026041680C4A0A404260C16A54
:102370000F229143C162016B094A0A400263416B1B
:1023800001229143416300218160704700100240A7
:102390000CB8FF08FFFFF6FEFFFFFBFFFFFFC0FFCB
:1023A000ECFEFFFF0000000000000000010203043B
:1023B000060708097047FEE77047704780B500F0D0
:1023C00021F8FFF74FFC01BD0C480168C969890677
:1023D00000D4704710B582B0002301226946FEF791
:1023E00034FB074C2000FEF713FD022804DB68468F
:1023F00001782000FEF72AFD13BD000034080020FC
:102400002008002002480168491C0160704700BF95
:10241000080A002070B40121002213E00468001DA6
:102420000C4202D04D466D1E64192260241D1B1FF4
:10243000042BFAD225009E0701D52280AD1C0B404B
:1024400000D02A700368001D002BE7D170BC7047D4
:1024500030B401210268001D002A0FD00368C318A0
:10246000446808300C4202D04D466D1E64191D6848
:1024700025601B1D241D121FECD0F8E730BC7047EF
:1024800010B5074979441831064C7C44163404E0F1
:10249000081D0A68891888470100A142F8D110BDBB
:1024A00008000000280000006DFFFFFF040400008A
:1024B000080600200000000099FFFFFF0400000054
:1024C00078000000000000200000000000F00BF881
:1024D000002801D0FFF7D4FF002000BF00BFFDF7A8
:1024E00023FF00F002F80120704780B500F002F8E9
:1024F00001BDFEE70746384600F002F8FBE7FEE7BD
:1025000080B500BF00BF024A11001820ABBEFBE738
:102510002600020001488047014800474523000883
:102520002525000800BF00BF00BF00BFFFF7CEFF9A
:10253000000000000102030400127A00FEE7FEE73B
:10254000FEE7FEE7FEE7FEE7FEE7FEE7FEE7FEE763
:02255000FEE7A4
:0400000508002525A5
:00000001FF
